S01A000067726561745F736166655F70726F6A6563742E73726563A3
S11300000C942A000C94C0050C94F6050C9447003B
S11300100C9447000C9447000C9447000C94470040
S11300200C9447000C9447000C9447000C94470030
S11300300C9447000C9447000C9447000C94470020
S11300400C9447000C9447000C9447000C94470010
S11300500C94470011241FBECFE5D8E0DEBFCDBF0E
S113006010E0A0E6B0E0E2E4F0E102C005900D92F9
S1130070AE3DB107D9F710E0AEEDB0E001C01D927E
S1130080A83EB107E1F70E949B030C941F080C944F
S11300900000843409F471C0853448F4823499F141
S11300A0833408F04DC0813409F083C00FC0823618
S11300B051F1833620F4813609F07BC007C08336C2
S11300C009F43EC0843609F074C057C0413069F465
S11300D02AB381E090E0AC0102C0440F551F6A9539
S11300E0E2F7BA01622B6ABB08952AB381E090E07B
S11300F0AC0102C0440F551F6A95E2F7BA0160953E
S113010062236ABB0895413069F427B381E090E02B
S1130110AC0102C0440F551F6A95E2F7BA01622B85
S113012067BB089527B381E090E0AC0102C0440F9F
S1130130551F6A95E2F7BA016095622367BB08957B
S1130140413069F424B381E090E0AC0102C0440F73
S1130150551F6A95E2F7BA01622B64BB089524B374
S113016081E090E0AC0102C0440F551F6A95E2F7AC
S1130170BA016095622364BB0895413069F421B3E8
S113018081E090E0AC0102C0440F551F6A95E2F78C
S1130190BA01622B61BB089521B381E090E0AC0108
S11301A002C0440F551F6A95E2F7BA0160956223B5
S11301B061BB0895843409F471C0853448F48234F1
S11301C099F1833408F04DC0813409F083C00FC025
S11301D0823651F1833620F4813609F07BC007C0A2
S11301E0833609F43EC0843609F074C057C04130E8
S11301F069F42BB381E090E0AC0102C0440F551FB9
S11302006A95E2F7BA01622B6BBB08952BB381E0C8
S113021090E0AC0102C0440F551F6A95E2F7BA01A1
S1130220609562236BBB0895413069F428B381E083
S113023090E0AC0102C0440F551F6A95E2F7BA0181
S1130240622B68BB089528B381E090E0AC0102C042
S1130250440F551F6A95E2F7BA016095622368BBA3
S11302600895413069F425B381E090E0AC0102C007
S1130270440F551F6A95E2F7BA01622B65BB0895D6
S113028025B381E090E0AC0102C0440F551F6A958C
S1130290E2F7BA016095622365BB0895413069F4C1
S11302A022B381E090E0AC0102C0440F551F6A956F
S11302B0E2F7BA01622B62BB089522B381E090E0B9
S11302C0AC0102C0440F551F6A95E2F7BA0160956C
S11302D0622362BB08958434B1F1853438F48234E6
S11302E0E1F0833428F58134C1F50CC08236A9F0DD
S11302F0833618F4813689F505C08336C9F084360F
S113030061F521C029B330E0C90102C095958795F4
S11303106A95E2F7982F917020C026B330E0C901A6
S113032002C0959587956A95E2F7982F917015C04C
S113033023B330E0C90102C0959587956A95E2F729
S1130340982F91700AC020B330E0C90102C095957E
S113035087956A95E2F7982F9170892F08958434D0
S113036009F43DC0853440F48234F9F0833450F507
S1130370813409F040C00CC08236B9F0833618F4D9
S11303808136C9F505C08336E9F08436A1F527C066
S11303902BB381E090E0AC0102C0440F551F6A9575
S11303A0E2F7BA0162276BBB089528B381E090E0BD
S11303B0AC0102C0440F551F6A95E2F7BA016227E7
S11303C068BB089525B381E090E0AC0102C0440FFE
S11303D0551F6A95E2F7BA01622765BB089522B3F7
S11303E081E090E0AC0102C0440F551F6A95E2F72A
S11303F0BA01622762BB08958434D9F0853438F495
S1130400823499F0833498F48134A1F40CC0823698
S113041061F0833618F4813669F405C0833639F007
S1130420843641F406C06ABB089567BB089564BB73
S1130430089561BB08958434D9F0853438F4823446
S113044099F0833498F48134A1F40CC0823661F0BD
S1130450833618F4813669F405C0833639F084365E
S113046041F406C06BBB089568BB089565BB08954D
S113047062BB08958434D9F0853438F4823499F019
S1130480833498F48134A1F40CC0823661F083364D
S113049018F4813669F405C0833639F0843641F4A2
S11304A006C089B3089586B3089583B3089580B3CD
S11304B00895843409F1853438F48234A9F08334FE
S11304C0B8F48134E1F40CC0823671F0833618F448
S11304D08136A9F405C0833659F0843681F40CC002
S11304E08BB380958BBB089588B3809588BB0895A2
S11304F085B3809585BB089582B3809582BB0895AA
S1130500843409F480C0853448F48234C1F18334DE
S113051008F057C0813409F097C00FC0823679F1D2
S1130520833620F4813609F08FC007C0833609F47E
S113053048C0843609F088C066C0413091F42BB3BA
S113054081E090E0AC0102C0440F551F6A95E2F7C8
S1130550BA01822F842B8BBB8AB3609568236ABB54
S113056008952BB381E090E0AC0102C0440F551F05
S11305706A95E2F7BA01609562236BBB0895413036
S113058091F428B381E090E0AC0102C0440F551F00
S11305906A95E2F7BA01822F842B88BB87B36095F2
S11305A0682367BB089528B381E090E0AC0102C0E2
S11305B0440F551F6A95E2F7BA016095622368BB40
S11305C00895413091F425B381E090E0AC0102C07C
S11305D0440F551F6A95E2F7BA01822F842B85BB1D
S11305E084B36095682364BB089525B381E090E0EB
S11305F0AC0102C0440F551F6A95E2F7BA01609539
S1130600622365BB0895413091F422B381E090E008
S1130610AC0102C0440F551F6A95E2F7BA01822F5C
S1130620842B82BB81B36095682361BB089522B398
S113063081E090E0AC0102C0440F551F6A95E2F7D7
S1130640BA016095622362BB08956F70843451F1DE
S1130650853438F48234C1F08334E8F4813441F5CC
S11306600CC0823689F0833618F4813609F505C04A
S1130670833689F08436E1F415C08BB3807F8BBB5D
S11306808BB3682B6BBB089588B3807F88BB88B31A
S1130690682B68BB089585B3807F85BB85B3682BC1
S11306A065BB089582B3807F82BB82B3682B62BB33
S11306B008956295607F843451F1853438F482342E
S11306C0C1F08334E8F4813441F50CC0823689F0FA
S11306D0833618F4813609F505C0833689F08436EB
S11306E0E1F415C08BB38F708BBB8BB3682B6BBBE2
S11306F0089588B38F7088BB88B3682B68BB08954E
S113070085B38F7085BB85B3682B65BB089582B3B1
S11307108F7082BB82B3682B62BB08959FBB8EBB74
S11307206DBBE29AE19AE199FECF08959FBB8EBB1F
S1130730E09A8DB30895789485B7816085BF8BB7AF
S113074080648BBF85B78C6085BF8BB780688BBF97
S1130750789481E08093E10082E60E94E40781E6D8
S113076066E00E9418080E94310783E60E94290669
S113077080E290E00E9496038F3F69F580E690E066
S11307800E94A407C1E2D0E083E60E946C06182F01
S11307908F3FD1F3CE01612F0E948E03812F0E94DF
S11307A07D078FE79AE1A6E081509040A040E1F7F1
S11307B000C000006C2F675181E00E94C3078AE2E9
S11307C00E947D072196C632D105F1F680E290E0C1
S11307D060E00E948E0302E00F2EF0ECEF2EF0E0BA
S11307E0FF2EF02D0F2EF7EECF2EF0E0DF2EF02DA2
S11307F00F2EFCEFAF2EFFEFBF2EF02DAC0CBD1C67
S11308000F2EFAE68F2EF0E09F2EF02D5A2C4B2C53
S11308100F2EF3EE6F2EF0E07F2EF02D0F2EFFEA59
S11308202F2EF0E03F2EF02D38C18FEFD6018C93A0
S11308308093E6008093E5008093E400F5018083D3
S113084081E00E940A07C4010E94A407C52DD42D8B
S11308501CE083E60E946C0688838F3FD1F30E94DC
S11308607D078FE79AE1A6E081509040A040E1F730
S113087000C0000081E0612F0E94C3078AE20E9449
S11308807D071F5F2196113121F781E290E00E94DC
S11308909603D3019C91891709F08FC082E290E0FE
S11308A00E949603E4EEF0E09081891709F085C078
S11308B083E290E00E949603A5EEB0E09C91891734
S11308C009F07BC084E290E00E949603E6EEF0E03B
S11308D09081891709F071C085E290E00E94960327
S11308E0D6019C91891709F068C081E00E940A072B
S11308F086E790E00E94A4078FEF99E6A8E1815073
S11309009040A040E1F700C0000082E60E94FE078C
S113091082E061E00E94C30781E890E00E94A4079E
S11309208FEF99E6A8E181509040A040E1F700C024
S1130930000088E00E940A078FEF95EAAEE081503C
S11309409040A040E1F700C000008CE00E940A073C
S11309508FEF95EAAEE081509040A040E1F700C0EF
S1130960000088E00E940A078FEF95EAAEE081500C
S11309709040A040E1F700C000008CE00E940A070C
S11309808FEF95EAAEE081509040A040E1F700C0BF
S1130990000088E00E940A078FEF95EAAEE08150DC
S11309A09040A040E1F700C000008CE00E940A07DC
S11309B01092E1001092E20070C00150E9F081E071
S11309C00E940A078EE890E00E94A40782E061E09A
S11309D00E94C30783EA90E00E94A407802F805DF1
S11309E00E947D078FEF99E6A8E181509040A040D6
S11309F0E1F700C0000051C081E00E940A07C10174
S1130A000E94A4078FEF99E6A8E181509040A0408E
S1130A10E1F700C0000088E00E940A078FEF95EA22
S1130A20AEE081509040A040E1F700C000008CE0AF
S1130A300E940A078FEF95EAAEE081509040A040F3
S1130A40E1F700C0000088E00E940A078FEF95EAF2
S1130A50AEE081509040A040E1F700C000008CE07F
S1130A600E940A078FEF95EAAEE081509040A040C3
S1130A70E1F700C0000088E00E940A078FEF95EAC2
S1130A80AEE081509040A040E1F700C000008CE04F
S1130A900E940A0782E08093E1008091E1008130A6
S1130AA009F05EC0C2CE81E666E00E941C08813077
S1130AB009F056C082E60E94F10781E00E940A070D
S1130AC0C7010E94A4078FEF99E6A8E181509040E6
S1130AD0A040E1F700C0000088E00E940A078FEF01
S1130AE095EAAEE081509040A040E1F700C00000DC
S1130AF08CE00E940A078FEF95EAAEE081509040A7
S1130B00A040E1F700C0000088E00E940A078FEFD0
S1130B1095EAAEE081509040A040E1F700C00000AB
S1130B208CE00E940A078FEF95EAAEE08150904076
S1130B30A040E1F700C0000088E00E940A078FEFA0
S1130B4095EAAEE081509040A040E1F700C000007B
S1130B508CE00E940A071092E00081E08093DE009E
S1130B608091E100882309F098CF8091E2008823E6
S1130B7009F093CF8091E000813009F494CF8DCFB8
S1130B801F920F920FB60F9211242F933F934F93FE
S1130B905F936F937F938F939F93AF93BF93EF93E1
S1130BA0FF938091DF00813081F48091DE008130F9
S1130BB061F482E60E940B0881E08093E200809356
S1130BC0E1001092DF001092DE00FF91EF91BF91DF
S1130BD0AF919F918F917F916F915F914F913F91D1
S1130BE02F910F900FBE0F901F9018951F920F9288
S1130BF00FB60F9211242F933F934F935F936F93EC
S1130C007F938F939F93AF93BF93EF93FF9382E66A
S1130C100E940B088FEF99E6A8E181509040A04014
S1130C20E1F700C0000081E08093E0008093DF00E2
S1130C30FF91EF91BF91AF919F918F917F916F91B0
S1130C405F914F913F912F910F900FBE0F901F9086
S1130C501895CF93C82F90E060E070E041E050E039
S1130C600E9449008C2F90E061E070E041E050E088
S1130C700E9449008C2F90E062E070E041E050E077
S1130C800E9449008C2F90E063E070E041E050E066
S1130C900E9449008C2F90E064E070E041E050E055
S1130CA00E9480028C2F90E065E070E041E050E00B
S1130CB00E9480028C2F90E066E070E041E050E0FA
S1130CC00E9480028C2F90E067E070E041E050E0E9
S1130CD00E948002CF9108958F929F92AF92BF920B
S1130CE0CF92DF92EF92FF920F931F93CF93DF93F4
S1130CF0CDB7DEB761970FB6F894DEBF0FBECDBF98
S1130D00DE011196EEECF0E090E101900D9291502D
S1130D10E1F79FEF998BCC24DD24F82EEE248F2D60
S1130D209E2D60E070E041E050E00E94DA008F2DDB
S1130D309E2D61E070E041E050E00E94DA008F2DCA
S1130D409E2D62E070E041E050E00E94DA008F2DB9
S1130D509E2D63E070E041E050E00E94DA0046011D
S1130D608F2D9E2DB60140E050E00E94DA0000E095
S1130D7010E05801B8016C5F7F4F8F2D9E2D0E94AB
S1130D806B01882369F4F401EE0FFF1FEE0FFF1FC0
S1130D90AE0EBF1EFE01EA0DFB1D8181898B06C0CC
S1130DA00F5F1F4F0430110521F714C08989619624
S1130DB00FB6F894DEBF0FBECDBFDF91CF911F9168
S1130DC00F91FF90EF90DF90CF90BF90AF909F90E6
S1130DD08F9008950894C11CD11C84E0C816D104D6
S1130DE009F09DCFE3CF81E464E041E00E94DA00A2
S1130DF08FE99FE00197F1F700C0000081E464E00F
S1130E0040E00E94DA008FE99FE00197F1F700C00B
S1130E1000000895CF93C82F682F62956F7081E406
S1130E2090E070E00E94250381E465E040E00E94C8
S1130E30DA000E94F3068FEC97E00197F1F700C007
S1130E40000081E490E06C2F70E00E9425030E9472
S1130E50F3068FEC97E00197F1F700C00000CF9103
S1130E60089581E460E041E00E94490081E461E08A
S1130E7041E00E94490081E462E041E00E944900AF
S1130E8081E463E041E00E94490081E464E041E0E0
S1130E900E94490081E465E041E00E94490082E04B
S1130EA00E940A078FE19EE40197F1F700C0000059
S1130EB088E20E940A078FEC97E00197F1F700C0DF
S1130EC0000081E00E940A078FE19EE40197F1F798
S1130ED000C0000086E00E940A078FEC97E00197AB
S1130EE0F1F700C000008EE00E940A078FEC97E043
S1130EF00197F1F700C000000895CF93C82F682F21
S1130F0062956F7081E490E070E00E94250381E4B3
S1130F1065E041E00E94DA000E94F3068FEC97E05E
S1130F200197F1F700C0000081E490E06C2F70E0BD
S1130F300E9425030E94F3068FEC97E00197F1F7D6
S1130F4000C00000CF910895CF93DF93EC01888116
S1130F50882331F021960E947D0789918823D9F74F
S1130F608FEC97E00197F1F700C00000DF91CF917B
S1130F70089581E00E940A078FE19EE40197F1F74A
S1130F8000C000000895282F2150223070F46623F9
S1130F9071F0613170F4813019F4962F91580AC0C0
S1130FA0823041F4962F915405C090E803C090E834
S1130FB001C090E8892F0E940A078FEC97E00197FF
S1130FC0F1F700C000000895CF93C82F60E041E01E
S1130FD00E9449008C2F61E041E00E944900CF91BA
S1130FE00895CF93C82F60E041E00E94DA008C2F6F
S1130FF061E040E00E94DA00CF910895CF93C82FBA
S113100060E040E00E94DA008C2F61E041E00E9441
S1131010DA00CF910895CF93C82F60E040E00E949A
S1131020DA008C2F61E040E00E94DA00CF9108954D
S113103040E00E94490008950E946B010895F894CD
S1051040FFCFDC
S113104273657420706173733A00656E74657220FF
S1131052706173733A0072696768742070617373A4
S113106200446F6F72206F70656E2E2E2E007772A1
S11310726F6E672070617373207472792061676187
S1131082696E007472696573206C6566743A0070E7
S113109265726D616E656E74206C6F636B6564005E
S11310A2646F6F7220636C6F73652E2E2E00373857
S11110B2392F3435362A3132333441303D2B58
S9030000FC
