S01A00004761726167655F646F6F725F73797374656D2E73726563AC
S11300000C942A000C94DE040C9411050C944A05FB
S11300100C9447000C9447000C9447000C94470040
S11300200C9447000C9447000C9447000C94470030
S11300300C9447000C9447000C9447000C94470020
S11300400C9447000C9447000C9447000C94470010
S11300500C94470011241FBECFE5D8E0DEBFCDBF0E
S113006010E0A0E6B0E0EEE5F4E102C005900D92E8
S1130070A83AB107D9F710E0A8EAB0E001C01D9290
S1130080A13CB107E1F70E949B030C942D0A0C9448
S11300900000843409F471C0853448F4823499F141
S11300A0833408F04DC0813409F083C00FC0823618
S11300B051F1833620F4813609F07BC007C08336C2
S11300C009F43EC0843609F074C057C0413069F465
S11300D02AB381E090E0AC0102C0440F551F6A9539
S11300E0E2F7BA01622B6ABB08952AB381E090E07B
S11300F0AC0102C0440F551F6A95E2F7BA0160953E
S113010062236ABB0895413069F427B381E090E02B
S1130110AC0102C0440F551F6A95E2F7BA01622B85
S113012067BB089527B381E090E0AC0102C0440F9F
S1130130551F6A95E2F7BA016095622367BB08957B
S1130140413069F424B381E090E0AC0102C0440F73
S1130150551F6A95E2F7BA01622B64BB089524B374
S113016081E090E0AC0102C0440F551F6A95E2F7AC
S1130170BA016095622364BB0895413069F421B3E8
S113018081E090E0AC0102C0440F551F6A95E2F78C
S1130190BA01622B61BB089521B381E090E0AC0108
S11301A002C0440F551F6A95E2F7BA0160956223B5
S11301B061BB0895843409F471C0853448F48234F1
S11301C099F1833408F04DC0813409F083C00FC025
S11301D0823651F1833620F4813609F07BC007C0A2
S11301E0833609F43EC0843609F074C057C04130E8
S11301F069F42BB381E090E0AC0102C0440F551FB9
S11302006A95E2F7BA01622B6BBB08952BB381E0C8
S113021090E0AC0102C0440F551F6A95E2F7BA01A1
S1130220609562236BBB0895413069F428B381E083
S113023090E0AC0102C0440F551F6A95E2F7BA0181
S1130240622B68BB089528B381E090E0AC0102C042
S1130250440F551F6A95E2F7BA016095622368BBA3
S11302600895413069F425B381E090E0AC0102C007
S1130270440F551F6A95E2F7BA01622B65BB0895D6
S113028025B381E090E0AC0102C0440F551F6A958C
S1130290E2F7BA016095622365BB0895413069F4C1
S11302A022B381E090E0AC0102C0440F551F6A956F
S11302B0E2F7BA01622B62BB089522B381E090E0B9
S11302C0AC0102C0440F551F6A95E2F7BA0160956C
S11302D0622362BB08958434B1F1853438F48234E6
S11302E0E1F0833428F58134C1F50CC08236A9F0DD
S11302F0833618F4813689F505C08336C9F084360F
S113030061F521C029B330E0C90102C095958795F4
S11303106A95E2F7982F917020C026B330E0C901A6
S113032002C0959587956A95E2F7982F917015C04C
S113033023B330E0C90102C0959587956A95E2F729
S1130340982F91700AC020B330E0C90102C095957E
S113035087956A95E2F7982F9170892F08958434D0
S113036009F43DC0853440F48234F9F0833450F507
S1130370813409F040C00CC08236B9F0833618F4D9
S11303808136C9F505C08336E9F08436A1F527C066
S11303902BB381E090E0AC0102C0440F551F6A9575
S11303A0E2F7BA0162276BBB089528B381E090E0BD
S11303B0AC0102C0440F551F6A95E2F7BA016227E7
S11303C068BB089525B381E090E0AC0102C0440FFE
S11303D0551F6A95E2F7BA01622765BB089522B3F7
S11303E081E090E0AC0102C0440F551F6A95E2F72A
S11303F0BA01622762BB08958434D9F0853438F495
S1130400823499F0833498F48134A1F40CC0823698
S113041061F0833618F4813669F405C0833639F007
S1130420843641F406C06ABB089567BB089564BB73
S1130430089561BB08958434D9F0853438F4823446
S113044099F0833498F48134A1F40CC0823661F0BD
S1130450833618F4813669F405C0833639F084365E
S113046041F406C06BBB089568BB089565BB08954D
S113047062BB08958434D9F0853438F4823499F019
S1130480833498F48134A1F40CC0823661F083364D
S113049018F4813669F405C0833639F0843641F4A2
S11304A006C089B3089586B3089583B3089580B3CD
S11304B00895843409F1853438F48234A9F08334FE
S11304C0B8F48134E1F40CC0823671F0833618F448
S11304D08136A9F405C0833659F0843681F40CC002
S11304E08BB380958BBB089588B3809588BB0895A2
S11304F085B3809585BB089582B3809582BB0895AA
S1130500843409F480C0853448F48234C1F18334DE
S113051008F057C0813409F097C00FC0823679F1D2
S1130520833620F4813609F08FC007C0833609F47E
S113053048C0843609F088C066C0413091F42BB3BA
S113054081E090E0AC0102C0440F551F6A95E2F7C8
S1130550BA01822F842B8BBB8AB3609568236ABB54
S113056008952BB381E090E0AC0102C0440F551F05
S11305706A95E2F7BA01609562236BBB0895413036
S113058091F428B381E090E0AC0102C0440F551F00
S11305906A95E2F7BA01822F842B88BB87B36095F2
S11305A0682367BB089528B381E090E0AC0102C0E2
S11305B0440F551F6A95E2F7BA016095622368BB40
S11305C00895413091F425B381E090E0AC0102C07C
S11305D0440F551F6A95E2F7BA01822F842B85BB1D
S11305E084B36095682364BB089525B381E090E0EB
S11305F0AC0102C0440F551F6A95E2F7BA01609539
S1130600622365BB0895413091F422B381E090E008
S1130610AC0102C0440F551F6A95E2F7BA01822F5C
S1130620842B82BB81B36095682361BB089522B398
S113063081E090E0AC0102C0440F551F6A95E2F7D7
S1130640BA016095622362BB08956F70843451F1DE
S1130650853438F48234C1F08334E8F4813441F5CC
S11306600CC0823689F0833618F4813609F505C04A
S1130670833689F08436E1F415C08BB3807F8BBB5D
S11306808BB3682B6BBB089588B3807F88BB88B31A
S1130690682B68BB089585B3807F85BB85B3682BC1
S11306A065BB089582B3807F82BB82B3682B62BB33
S11306B008956295607F843451F1853438F482342E
S11306C0C1F08334E8F4813441F50CC0823689F0FA
S11306D0833618F4813609F505C0833689F08436EB
S11306E0E1F415C08BB38F708BBB8BB3682B6BBBE2
S11306F0089588B38F7088BB88B3682B68BB08954E
S113070085B38F7085BB85B3682B65BB089582B3B1
S11307108F7082BB82B3682B62BB08959FBB8EBB74
S11307206DBBE29AE19AE199FECF08959FBB8EBB1F
S1130730E09A8DB30895789485B7836085BF8BB7AD
S113074080648BBF85B78C6085BF8BB780688BBF97
S11307507894789484B7806484BF8BB780628BBFAD
S113076081E08093AD0082E60E94AE0781E666E0F8
S11307700E94E2070E94FB068CE00E94D40660E51A
S113078073EC80E090E00E9461050E94750580EAA8
S11307900E947F0581E20E948A050E9495058FEFE1
S11307A090E7A2E081509040A040E1F700C0000033
S11307B001E00F2EF5E88F2EF0E09F2EF02D0F2E86
S11307C0F7E7EF2EF0E0FF2EF02D102F0F2EF0E6BE
S11307D0AF2EF0E0BF2EF02D0F2EFFEACF2EF0E06B
S11307E0DF2EF02D0F2EFAE66F2EF0E07F2EF02D87
S11307F067C00E94750580EA0E947F0581E20E941D
S11308008A050E9495058FEF90E7A2E08150904001
S1130810A040E1F700C000000E94750580EA0E9434
S11308207F058091A800805D0E948A050E9495053D
S11308308FEF90E7A2E081509040A040E1F700C024
S11308400000802F602F0E948D07C5010E946E0753
S1130850802F6AE00E948D070E945708EC01C601B0
S1130860BE010E94AE05C6010E946E0780E20E948E
S1130870470780E20E94470780E20E94470780E220
S11308800E94470780E20E94470780E20E944707D0
S113089080E20E94470780E20E944707C531D105E4
S11308A078F482E60E94C8071092AD0082E0602FBF
S11308B00E948D07C3010E946E0780E28093A90005
S11308C08091AD00813019F594CF81E666E00E94F5
S11308D0E6078130E1F482E60E94BB070E948307A9
S11308E0C7010E946E071092AE001093AC001093E3
S11308F0AB008091A8008F5F8093A8008FE79FE4EE
S1130900A2E181509040A040E1F700C00000809136
S1130910AD00882321F48091AE008130B1F2809142
S1130920A8008330B4F50E94750580EA0E947F0513
S11309308091A800805D0E948A050E9495058FE73A
S113094099EAA3E081509040A040E1F700C0000084
S11309508091A8008230E9F4802F0E94D406C4015B
S11309600E946E070E94750580EA0E947F0581E25D
S11309700E948A050E9495058FEF90E7A2E08150BE
S11309809040A040E1F700C000008091A8008230B0
S1130990E1F30E94750580EA0E947F058091A90019
S11309A00E948A050E9495058FEF90E7A2E081508E
S11309B09040A040E1F700C0000082CF1F920F9248
S11309C00FB60F9211242F933F934F935F936F931E
S11309D07F938F939F93AF93BF93EF93FF938091F4
S11309E0AC00813069F482E60E94D50781E08093EF
S11309F0AD001092AC001092AB0081E28093A9008C
S1130A00FF91EF91BF91AF919F918F917F916F91E2
S1130A105F914F913F912F910F900FBE0F901F90B8
S1130A2018951F920F920FB60F9211242F933F9394
S1130A304F935F936F937F938F939F93AF93BF93E2
S1130A40EF93FF938091AD00882399F48091AB00DC
S1130A50882379F482E60E94D5078FEF99E6A8E10E
S1130A6081509040A040E1F700C0000081E08093F5
S1130A70AE00FF91EF91BF91AF919F918F917F91C4
S1130A806F915F914F913F912F910F900FBE0F90F7
S1130A901F9018951F920F920FB60F9211248F93E7
S1130AA08091A80081508093A8008091A800882399
S1130AB014F41092A8008F910F900FBE0F901F9006
S1130AC018959B01AC0160E072E18AE790E00E9416
S1130AD0F709DA01C9014097A109B109B695A795AB
S1130AE09795879580B911B8089584EA86BF06B6AC
S1130AF007FEFDCF81B1887F8830E1F7089583B97F
S1130B0084E886BF06B607FEFDCF81B1887F8831B1
S1130B10E1F7089583B984E886BF06B607FEFDCFE2
S1130B2081B1887F8832E1F7089584E986BF08950A
S1130B3082B9089584EC86BF06B607FEFDCF81B165
S1130B40887F8036E1F784EC86BF06B607FEFDCFCA
S1130B5081B1887F8038E1F783B10895CF92DF9225
S1130B60EF92FF920F931F93CF93DF936C01FB01DE
S1130B70309761F1CB01C0E0D0E02AE030E021966B
S1130B80B9010E94E409CB010097C9F71C161D06A0
S1130B90CCF486010C0F1D1F20E030E00F2EFAE08C
S1130BA0EF2EFF24F02DCF01B7010E94E409E62FB8
S1130BB0F72F805DD8018E938D012F5F3F4F2C1747
S1130BC03D0789F7CC0DDD1D188204C080E3F601D2
S1130BD080831182DF91CF911F910F91FF90EF904D
S1130BE0DF90CF900895CF93C82F90E060E070E03D
S1130BF041E050E00E9449008C2F90E061E070E0F9
S1130C0041E050E00E9449008C2F90E062E070E0E7
S1130C1041E050E00E9449008C2F90E063E070E0D6
S1130C2041E050E00E9449008C2F90E064E070E0C5
S1130C3041E050E00E9480028C2F90E065E070E07B
S1130C4041E050E00E9480028C2F90E066E070E06A
S1130C5041E050E00E9480028C2F90E067E070E059
S1130C6041E050E00E948002CF9108958F929F92BC
S1130C70AF92BF92CF92DF92EF92FF920F931F93A6
S1130C80CF93DF93CDB7DEB761970FB6F894DEBF8D
S1130C900FBECDBFDE011196E8E9F0E090E10190CE
S1130CA00D929150E1F79FEF998BCC24DD24F82E1F
S1130CB0EE248F2D9E2D60E070E041E050E00E9414
S1130CC0DA008F2D9E2D61E070E041E050E00E943B
S1130CD0DA008F2D9E2D62E070E041E050E00E942A
S1130CE0DA008F2D9E2D63E070E041E050E00E9419
S1130CF0DA0046018F2D9E2DB60140E050E00E949F
S1130D00DA0000E010E05801B8016C5F7F4F8F2DCE
S1130D109E2D0E946B01882369F4F401EE0FFF1FDE
S1130D20EE0FFF1FAE0EBF1EFE01EA0DFB1D8181FB
S1130D30898B06C00F5F1F4F0430110521F714C0C3
S1130D40898961960FB6F894DEBF0FBECDBFDF91DF
S1130D50CF911F910F91FF90EF90DF90CF90BF90B4
S1130D60AF909F908F9008950894C11CD11C84E08B
S1130D70C816D10409F09DCFE3CF81E464E041E0DB
S1130D800E94DA008FE99FE00197F1F700C00000AC
S1130D9081E464E040E00E94DA008FE99FE001977B
S1130DA0F1F700C000000895CF93C82F682F629513
S1130DB06F7081E490E070E00E94250381E465E0B7
S1130DC040E00E94DA000E94BD068FEC97E0019794
S1130DD0F1F700C0000081E490E06C2F70E00E9405
S1130DE025030E94BD068FEC97E00197F1F700C040
S1130DF00000CF91089581E460E041E00E94490041
S1130E0081E461E041E00E94490081E462E041E064
S1130E100E94490081E463E041E00E94490081E4CA
S1130E2064E041E00E94490081E465E041E00E9401
S1130E30490082E00E94D4068FE19EE40197F1F715
S1130E4000C0000088E20E94D4068FEC97E001976E
S1130E50F1F700C0000081E00E94D4068FE19EE417
S1130E600197F1F700C0000086E00E94D4068FECE1
S1130E7097E00197F1F700C000008EE00E94D406CD
S1130E808FEC97E00197F1F700C000000895CF932D
S1130E90C82F682F62956F7081E490E070E00E9423
S1130EA0250381E465E041E00E94DA000E94BD066A
S1130EB08FEC97E00197F1F700C0000081E490E027
S1130EC06C2F70E00E9425030E94BD068FEC97E012
S1130ED00197F1F700C00000CF910895CF93DF93FD
S1130EE0EC018881882331F021960E94470789917B
S1130EF08823D9F78FEC97E00197F1F700C0000041
S1130F00DF91CF91089581E00E94D4068FE19EE4A1
S1130F100197F1F700C000000895282F21502230D6
S1130F2070F4662371F0613170F4813019F4962FF6
S1130F3091580AC0823041F4962F915405C090E82C
S1130F4003C090E801C090E8892F0E94D4068FEC7A
S1130F5097E00197F1F700C000000895CF93C82FE0
S1130F6060E041E00E9449008C2F61E041E00E9472
S1130F704900CF910895CF93C82F60E041E00E94CB
S1130F80DA008C2F61E040E00E94DA00CF910895EE
S1130F90CF93C82F60E040E00E94DA008C2F61E01C
S1130FA041E00E94DA00CF910895CF93C82F60E00A
S1130FB040E00E94DA008C2F61E040E00E94DA00F9
S1130FC0CF91089540E00E94490008950E946B016A
S1130FD0089583B7886083BF80E58CBF83B7816041
S1130FE083BF83B7846083BF789489B7826089BFE5
S1130FF008950F931F93CF93DF93EC018B0182E647
S113100063E041E00E94490083B7886083BFCC0F4E
S1131010DD1FC09F9001C19F300DD09F300D112462
S113102040E050E060E072E18AE790E00E94F70956
S1131030CA01B9010E94370920E030E040E85FE3CB
S11310400E94A6080E940B096CBF83B7816083BF0E
S113105083B7846083BF83B7806183BFDF91CF91FF
S11310601F910F91089582B5886082BD85B5816016
S113107085BD85B5846085BD789489B7806489BF52
S11310800895789489B7816089BF83B7806483BFEA
S113109083B7886083BF80E48CBF83B7816083BFDC
S11310A083B7846083BF83B7806283BF08951FBC06
S11310B088B7806288BFA29A88B7806288BFAA9ADC
S11310C085E88A95F1F70000AA9885E88A95F1F7F2
S11310D0000081EC8EBD08B605FEFDCF86B597B540
S11310E09093BA008093B90088B7806288BF81E882
S11310F08EBD08B605FEFDCF66B577B57093C0000A
S11311006093BF0088B7806288BF1EBC12BE809106
S1131110B9009091BA00681B790B7093BE0060937C
S1131120BD0080E090E028E237E840E050E00E9413
S1131130C50920E034E244EF50E00E94F70920930F
S1131140BB003093BC00822F932F08955058BB27C7
S1131150AA270ED0E0C0D1D030F0D6D020F031F4A0
S11311609F3F11F41EF4C6C00EF4E095E7FBBCC02B
S1131170E92FE2D080F3BA17620773078407950753
S113118018F071F49EF5FAC00EF4E0950B2EBA2F08
S1131190A02D0B01B90190010C01CA01A001112479
S11311A0FF27591B99F0593F50F4503E68F11A1625
S11311B0F040A22F232F342F4427585FF3CF4695B6
S11311C037952795A795F0405395C9F77EF41F16D8
S11311D0BA0B620B730B840BBAF09150A1F0FF0FA2
S11311E0BB1F661F771F881FC2F70EC0BA0F621F8E
S11311F0731F841F48F4879577956795B795F7957E
S11312009E3F08F0B3CF9395880F08F09927EE0F0F
S113121097958795089598D088F09F5790F0B92FA7
S11312209927B751A0F0D1F0660F771F881F991F37
S11312301AF0BA95C9F712C0B13081F09FD0B1E06D
S113124008959CC0672F782F8827B85F39F0B93F7D
S1131250CCF3869577956795B395D9F73EF4909539
S11312608095709561957F4F8F4F9F4F0895E894B7
S113127009C097FB3EF490958095709561957F4FDA
S11312808F4F9F4F9923A9F0F92F96E9BB27939588
S1131290F695879577956795B795F111F8CFFAF498
S11312A0BB0F11F460FF1BC06F5F7F4F8F4F9F4FC9
S11312B016C0882311F096E911C0772321F09EE827
S11312C0872F762F05C0662371F096E8862F70E08D
S11312D060E02AF09A95660F771F881FDAF7880F67
S11312E09695879597F9089597F99F6780E870E038
S11312F060E008959FEF80EC089500240A94161688
S1131300170618060906089500240A9412161306EF
S1131310140605060895092E0394000C11F488237D
S113132052F0BB0F40F4BF2B11F460FF04C06F5F99
S11313307F4F8F4F9F4F089557FD9058440F551F6F
S113134059F05F3F71F04795880F97FB991F61F043
S11313509F3F79F087950895121613061406551FBA
S1131360F2CF4695F1DF08C0161617061806991F26
S1131370F1CF86957105610508940895E894BB271B
S113138066277727CB0197F90895629FD001739F51
S1131390F001829FE00DF11D649FE00DF11D929F0D
S11313A0F00D839FF00D749FF00D659FF00D99274C
S11313B0729FB00DE11DF91F639FB00DE11DF91F70
S11313C0BD01CF011124089597FB092E07260AD0E9
S11313D077FD04D02ED006D000201AF470956195C4
S11313E07F4F0895F6F7909581959F4F0895A1E258
S11313F01A2EAA1BBB1BFD010DC0AA1FBB1FEE1F8B
S1131400FF1FA217B307E407F50720F0A21BB30BD5
S1131410E40BF50B661F771F881F991F1A9469F751
S113142060957095809590959B01AC01BD01CF01AD
S11314300895AA1BBB1B51E107C0AA1FBB1FA61717
S1131440B70710F0A61BB70B881F991F5A95A9F769
S111145080959095BC01CD010895F894FFCFCE
S113145E64697374616E63653A00446F6F72206FD2
S113146E70656E2E2E2E00646F6F7220636C6F7318
S113147E652E2E2E005468652067617261676520A3
S113148E69732066756C6C003738392F3435362AFB
S10B149E3132333441303D2B9F
S9030000FC
